{
  "_format": "hh-sol-artifact-1",
  "contractName": "AuditAnchor",
  "sourceName": "contracts/AuditAnchor.sol",
  "abi": [
    {
      "anonymous": false,
      "inputs": [
        {
          "indexed": true,
          "internalType": "uint256",
          "name": "id",
          "type": "uint256"
        },
        {
          "indexed": false,
          "internalType": "bytes32",
          "name": "merkleRoot",
          "type": "bytes32"
        },
        {
          "indexed": false,
          "internalType": "string",
          "name": "farmerId",
          "type": "string"
        },
        {
          "indexed": false,
          "internalType": "uint256",
          "name": "logCount",
          "type": "uint256"
        },
        {
          "indexed": false,
          "internalType": "uint256",
          "name": "timestamp",
          "type": "uint256"
        }
      ],
      "name": "SnapshotAnchored",
      "type": "event"
    },
    {
      "inputs": [
        {
          "internalType": "bytes32",
          "name": "_merkleRoot",
          "type": "bytes32"
        },
        {
          "internalType": "string",
          "name": "_farmerId",
          "type": "string"
        },
        {
          "internalType": "uint256",
          "name": "_logCount",
          "type": "uint256"
        }
      ],
      "name": "anchorSnapshot",
      "outputs": [
        {
          "internalType": "uint256",
          "name": "",
          "type": "uint256"
        }
      ],
      "stateMutability": "nonpayable",
      "type": "function"
    },
    {
      "inputs": [
        {
          "internalType": "string",
          "name": "",
          "type": "string"
        },
        {
          "internalType": "uint256",
          "name": "",
          "type": "uint256"
        }
      ],
      "name": "farmSnapshots",
      "outputs": [
        {
          "internalType": "uint256",
          "name": "",
          "type": "uint256"
        }
      ],
      "stateMutability": "view",
      "type": "function"
    },
    {
      "inputs": [
        {
          "internalType": "string",
          "name": "_farmerId",
          "type": "string"
        }
      ],
      "name": "getFarmSnapshots",
      "outputs": [
        {
          "internalType": "uint256[]",
          "name": "",
          "type": "uint256[]"
        }
      ],
      "stateMutability": "view",
      "type": "function"
    },
    {
      "inputs": [
        {
          "internalType": "uint256",
          "name": "_id",
          "type": "uint256"
        }
      ],
      "name": "getSnapshot",
      "outputs": [
        {
          "components": [
            {
              "internalType": "bytes32",
              "name": "merkleRoot",
              "type": "bytes32"
            },
            {
              "internalType": "uint256",
              "name": "timestamp",
              "type": "uint256"
            },
            {
              "internalType": "uint256",
              "name": "logCount",
              "type": "uint256"
            },
            {
              "internalType": "string",
              "name": "farmerId",
              "type": "string"
            }
          ],
          "internalType": "struct AuditAnchor.Snapshot",
          "name": "",
          "type": "tuple"
        }
      ],
      "stateMutability": "view",
      "type": "function"
    },
    {
      "inputs": [],
      "name": "getSnapshotCount",
      "outputs": [
        {
          "internalType": "uint256",
          "name": "",
          "type": "uint256"
        }
      ],
      "stateMutability": "view",
      "type": "function"
    },
    {
      "inputs": [
        {
          "internalType": "uint256",
          "name": "",
          "type": "uint256"
        }
      ],
      "name": "snapshots",
      "outputs": [
        {
          "internalType": "bytes32",
          "name": "merkleRoot",
          "type": "bytes32"
        },
        {
          "internalType": "uint256",
          "name": "timestamp",
          "type": "uint256"
        },
        {
          "internalType": "uint256",
          "name": "logCount",
          "type": "uint256"
        },
        {
          "internalType": "string",
          "name": "farmerId",
          "type": "string"
        }
      ],
      "stateMutability": "view",
      "type": "function"
    },
    {
      "inputs": [
        {
          "internalType": "string",
          "name": "_farmerId",
          "type": "string"
        },
        {
          "internalType": "bytes32",
          "name": "_merkleRoot",
          "type": "bytes32"
        }
      ],
      "name": "verifyMerkleRoot",
      "outputs": [
        {
          "internalType": "bool",
          "name": "",
          "type": "bool"
        }
      ],
      "stateMutability": "view",
      "type": "function"
    }
  ],
  "bytecode": "0x608060405234801561001057600080fd5b50610adc806100206000396000f3fe608060405234801561001057600080fd5b506004361061007d5760003560e01c806376fc69801161005b57806376fc6980146100ea578063999e3d431461010b578063bcbcf1481461011e578063d6565a2d1461012657600080fd5b806333332a1214610082578063468d09d8146100aa57806376f10ad0146100ca575b600080fd5b6100956100903660046106f1565b610149565b60405190151581526020015b60405180910390f35b6100bd6100b8366004610736565b61022f565b6040516100a19190610773565b6100dd6100d83660046107b7565b61029f565b6040516100a19190610820565b6100fd6100f83660046106f1565b6103ee565b6040519081526020016100a1565b6100fd610119366004610859565b61042e565b6000546100fd565b6101396101343660046107b7565b610586565b6040516100a194939291906108a9565b60008060018460405161015c91906108d8565b90815260408051918290036020908101832080548083028501830190935282845291908301828280156101ae57602002820191906000526020600020905b81548152602001906001019080831161019a575b5050505050905060005b8151811015610222578360008383815181106101d6576101d66108f4565b6020026020010151815481106101ee576101ee6108f4565b9060005260206000209060040201600001540361021057600192505050610229565b8061021a8161090a565b9150506101b8565b5060009150505b92915050565b606060018260405161024191906108d8565b908152604080519182900360209081018320805480830285018301909352828452919083018282801561029357602002820191906000526020600020905b81548152602001906001019080831161027f575b50505050509050919050565b604080516080810182526000808252602082018190529181018290526060808201529054821061030b5760405162461bcd60e51b8152602060048201526013602482015272125b9d985b1a59081cdb985c1cda1bdd081251606a1b604482015260640160405180910390fd5b6000828154811061031e5761031e6108f4565b906000526020600020906004020160405180608001604052908160008201548152602001600182015481526020016002820154815260200160038201805461036590610931565b80601f016020809104026020016040519081016040528092919081815260200182805461039190610931565b80156103de5780601f106103b3576101008083540402835291602001916103de565b820191906000526020600020905b8154815290600101906020018083116103c157829003601f168201915b5050505050815250509050919050565b8151602081840181018051600182529282019185019190912091905280548290811061041957600080fd5b90600052602060002001600091509150505481565b60008054604080516080810182528681524260208201908152918101858152606082018781526001850186558580528251600486027f290decd9548b62a8d60345a988386fc84ba6bc95484008f6362f93160ef3e563810191825594517f290decd9548b62a8d60345a988386fc84ba6bc95484008f6362f93160ef3e56486015591517f290decd9548b62a8d60345a988386fc84ba6bc95484008f6362f93160ef3e56585015551919290917f290decd9548b62a8d60345a988386fc84ba6bc95484008f6362f93160ef3e5669091019061050990826109ba565b50505060018460405161051c91906108d8565b9081526040519081900360209081018220805460018101825560009182529190200182905581907f2ebf1824f871345a65bb5ce63e35c5ee0265b0b303b6e30217f628a0aea0e59f90610576908890889088904290610a7a565b60405180910390a2949350505050565b6000818154811061059657600080fd5b90600052602060002090600402016000915090508060000154908060010154908060020154908060030180546105cb90610931565b80601f01602080910402602001604051908101604052809291908181526020018280546105f790610931565b80156106445780601f1061061957610100808354040283529160200191610644565b820191906000526020600020905b81548152906001019060200180831161062757829003601f168201915b5050505050905084565b634e487b7160e01b600052604160045260246000fd5b600082601f83011261067557600080fd5b813567ffffffffffffffff808211156106905761069061064e565b604051601f8301601f19908116603f011681019082821181831017156106b8576106b861064e565b816040528381528660208588010111156106d157600080fd5b836020870160208301376000602085830101528094505050505092915050565b6000806040838503121561070457600080fd5b823567ffffffffffffffff81111561071b57600080fd5b61072785828601610664565b95602094909401359450505050565b60006020828403121561074857600080fd5b813567ffffffffffffffff81111561075f57600080fd5b61076b84828501610664565b949350505050565b6020808252825182820181905260009190848201906040850190845b818110156107ab5783518352928401929184019160010161078f565b50909695505050505050565b6000602082840312156107c957600080fd5b5035919050565b60005b838110156107eb5781810151838201526020016107d3565b50506000910152565b6000815180845261080c8160208601602086016107d0565b601f01601f19169290920160200192915050565b602081528151602082015260208201516040820152604082015160608201526000606083015160808084015261076b60a08401826107f4565b60008060006060848603121561086e57600080fd5b83359250602084013567ffffffffffffffff81111561088c57600080fd5b61089886828701610664565b925050604084013590509250925092565b8481528360208201528260408201526080606082015260006108ce60808301846107f4565b9695505050505050565b600082516108ea8184602087016107d0565b9190910192915050565b634e487b7160e01b600052603260045260246000fd5b60006001820161092a57634e487b7160e01b600052601160045260246000fd5b5060010190565b600181811c9082168061094557607f821691505b60208210810361096557634e487b7160e01b600052602260045260246000fd5b50919050565b601f8211156109b557600081815260208120601f850160051c810160208610156109925750805b601f850160051c820191505b818110156109b15782815560010161099e565b5050505b505050565b815167ffffffffffffffff8111156109d4576109d461064e565b6109e8816109e28454610931565b8461096b565b602080601f831160018114610a1d5760008415610a055750858301515b600019600386901b1c1916600185901b1785556109b1565b600085815260208120601f198616915b82811015610a4c57888601518255948401946001909101908401610a2d565b5085821015610a6a5787850151600019600388901b60f8161c191681555b5050505050600190811b01905550565b848152608060208201526000610a9360808301866107f4565b604083019490945250606001529291505056fea2646970667358221220aefc6867ea5a533df908662a55e398fdd58a5d801720df901b6a9e34a794c9a764736f6c63430008140033",
  "linkReferences": {},
  "deployedLinkReferences": {}
}